{
  "contractName": "EventContract",
  "abi": [
    {
      "inputs": [
        {
          "internalType": "uint256",
          "name": "",
          "type": "uint256"
        }
      ],
      "name": "events",
      "outputs": [
        {
          "internalType": "address",
          "name": "organizer",
          "type": "address"
        },
        {
          "internalType": "string",
          "name": "name",
          "type": "string"
        },
        {
          "internalType": "uint256",
          "name": "date",
          "type": "uint256"
        },
        {
          "internalType": "uint256",
          "name": "price",
          "type": "uint256"
        },
        {
          "internalType": "uint256",
          "name": "ticketCount",
          "type": "uint256"
        },
        {
          "internalType": "uint256",
          "name": "ticketRemain",
          "type": "uint256"
        }
      ],
      "stateMutability": "view",
      "type": "function",
      "constant": true
    },
    {
      "inputs": [],
      "name": "nextId",
      "outputs": [
        {
          "internalType": "uint256",
          "name": "",
          "type": "uint256"
        }
      ],
      "stateMutability": "view",
      "type": "function",
      "constant": true
    },
    {
      "inputs": [
        {
          "internalType": "address",
          "name": "",
          "type": "address"
        },
        {
          "internalType": "uint256",
          "name": "",
          "type": "uint256"
        }
      ],
      "name": "tickets",
      "outputs": [
        {
          "internalType": "uint256",
          "name": "",
          "type": "uint256"
        }
      ],
      "stateMutability": "view",
      "type": "function",
      "constant": true
    },
    {
      "inputs": [
        {
          "internalType": "string",
          "name": "name",
          "type": "string"
        },
        {
          "internalType": "uint256",
          "name": "date",
          "type": "uint256"
        },
        {
          "internalType": "uint256",
          "name": "price",
          "type": "uint256"
        },
        {
          "internalType": "uint256",
          "name": "ticketCount",
          "type": "uint256"
        }
      ],
      "name": "createEvent",
      "outputs": [],
      "stateMutability": "nonpayable",
      "type": "function"
    },
    {
      "inputs": [
        {
          "internalType": "uint256",
          "name": "id",
          "type": "uint256"
        },
        {
          "internalType": "uint256",
          "name": "quantity",
          "type": "uint256"
        }
      ],
      "name": "buyTicket",
      "outputs": [],
      "stateMutability": "payable",
      "type": "function",
      "payable": true
    },
    {
      "inputs": [
        {
          "internalType": "uint256",
          "name": "id",
          "type": "uint256"
        },
        {
          "internalType": "uint256",
          "name": "quantity",
          "type": "uint256"
        },
        {
          "internalType": "address",
          "name": "to",
          "type": "address"
        }
      ],
      "name": "transferTicket",
      "outputs": [],
      "stateMutability": "nonpayable",
      "type": "function"
    }
  ],
  "bytecode": "0x608060405234801561001057600080fd5b506113a1806100206000396000f3fe6080604052600436106100555760003560e01c80630374ab0b1461005a5780630b79143014610083578063298ec208146100c557806361b8ce8c146100e1578063dae7a13c1461010c578063f086a09b14610149575b600080fd5b34801561006657600080fd5b50610081600480360381019061007c91906108e6565b610172565b005b34801561008f57600080fd5b506100aa60048036038101906100a5919061096e565b610339565b6040516100bc96959493929190610a7b565b60405180910390f35b6100df60048036038101906100da9190610ae3565b61041d565b005b3480156100ed57600080fd5b506100f6610601565b6040516101039190610b23565b60405180910390f35b34801561011857600080fd5b50610133600480360381019061012e9190610b6a565b610607565b6040516101409190610b23565b60405180910390f35b34801561015557600080fd5b50610170600480360381019061016b9190610baa565b61062c565b005b4283116101b4576040517f08c379a00000000000000000000000000000000000000000000000000000000081526004016101ab90610c6f565b60405180910390fd5b600081116101f7576040517f08c379a00000000000000000000000000000000000000000000000000000000081526004016101ee90610d01565b60405180910390fd5b6002600081548092919061020a90610d50565b91905055506040518060c001604052803373ffffffffffffffffffffffffffffffffffffffff16815260200186868080601f016020809104026020016040519081016040528093929190818152602001838380828437600081840152601f19601f82011690508083019250505050505050815260200184815260200183815260200182815260200182815250600080600254815260200190815260200160002060008201518160000160006101000a81548173ffffffffffffffffffffffffffffffffffffffff021916908373ffffffffffffffffffffffffffffffffffffffff16021790555060208201518160010190816103069190610fd3565b5060408201518160020155606082015181600301556080820151816004015560a082015181600501559050505050505050565b60006020528060005260406000206000915090508060000160009054906101000a900473ffffffffffffffffffffffffffffffffffffffff169080600101805461038290610df6565b80601f01602080910402602001604051908101604052809291908181526020018280546103ae90610df6565b80156103fb5780601f106103d0576101008083540402835291602001916103fb565b820191906000526020600020905b8154815290600101906020018083116103de57829003601f168201915b5050505050908060020154908060030154908060040154908060050154905086565b60008060008481526020019081526020016000206002015403610475576040517f08c379a000000000000000000000000000000000000000000000000000000000815260040161046c906110f1565b60405180910390fd5b4260008084815260200190815260200160002060020154116104cc576040517f08c379a00000000000000000000000000000000000000000000000000000000081526004016104c39061115d565b60405180910390fd5b600080600084815260200190815260200160002090508181600301546104f2919061117d565b3414610533576040517f08c379a000000000000000000000000000000000000000000000000000000000815260040161052a9061120b565b60405180910390fd5b818160050154101561057a576040517f08c379a000000000000000000000000000000000000000000000000000000000815260040161057190611277565b60405180910390fd5b8181600501600082825461058e9190611297565b9250508190555081600160003373ffffffffffffffffffffffffffffffffffffffff1673ffffffffffffffffffffffffffffffffffffffff168152602001908152602001600020600085815260200190815260200160002060008282546105f591906112cb565b92505081905550505050565b60025481565b6001602052816000526040600020602052806000526040600020600091509150505481565b60008060008581526020019081526020016000206002015403610684576040517f08c379a000000000000000000000000000000000000000000000000000000000815260040161067b906110f1565b60405180910390fd5b4260008085815260200190815260200160002060020154116106db576040517f08c379a00000000000000000000000000000000000000000000000000000000081526004016106d29061115d565b60405180910390fd5b81600160003373ffffffffffffffffffffffffffffffffffffffff1673ffffffffffffffffffffffffffffffffffffffff168152602001908152602001600020600085815260200190815260200160002054101561076e576040517f08c379a00000000000000000000000000000000000000000000000000000000081526004016107659061134b565b60405180910390fd5b81600160003373ffffffffffffffffffffffffffffffffffffffff1673ffffffffffffffffffffffffffffffffffffffff168152602001908152602001600020600085815260200190815260200160002060008282546107ce9190611297565b9250508190555081600160008373ffffffffffffffffffffffffffffffffffffffff1673ffffffffffffffffffffffffffffffffffffffff1681526020019081526020016000206000858152602001908152602001600020600082825461083591906112cb565b92505081905550505050565b600080fd5b600080fd5b600080fd5b600080fd5b600080fd5b60008083601f8401126108705761086f61084b565b5b8235905067ffffffffffffffff81111561088d5761088c610850565b5b6020830191508360018202830111156108a9576108a8610855565b5b9250929050565b6000819050919050565b6108c3816108b0565b81146108ce57600080fd5b50565b6000813590506108e0816108ba565b92915050565b60008060008060006080868803121561090257610901610841565b5b600086013567ffffffffffffffff8111156109205761091f610846565b5b61092c8882890161085a565b9550955050602061093f888289016108d1565b9350506040610950888289016108d1565b9250506060610961888289016108d1565b9150509295509295909350565b60006020828403121561098457610983610841565b5b6000610992848285016108d1565b91505092915050565b600073ffffffffffffffffffffffffffffffffffffffff82169050919050565b60006109c68261099b565b9050919050565b6109d6816109bb565b82525050565b600081519050919050565b600082825260208201905092915050565b60005b83811015610a165780820151818401526020810190506109fb565b60008484015250505050565b6000601f19601f8301169050919050565b6000610a3e826109dc565b610a4881856109e7565b9350610a588185602086016109f8565b610a6181610a22565b840191505092915050565b610a75816108b0565b82525050565b600060c082019050610a9060008301896109cd565b8181036020830152610aa28188610a33565b9050610ab16040830187610a6c565b610abe6060830186610a6c565b610acb6080830185610a6c565b610ad860a0830184610a6c565b979650505050505050565b60008060408385031215610afa57610af9610841565b5b6000610b08858286016108d1565b9250506020610b19858286016108d1565b9150509250929050565b6000602082019050610b386000830184610a6c565b92915050565b610b47816109bb565b8114610b5257600080fd5b50565b600081359050610b6481610b3e565b92915050565b60008060408385031215610b8157610b80610841565b5b6000610b8f85828601610b55565b9250506020610ba0858286016108d1565b9150509250929050565b600080600060608486031215610bc357610bc2610841565b5b6000610bd1868287016108d1565b9350506020610be2868287016108d1565b9250506040610bf386828701610b55565b9150509250925092565b7f596f752063616e206f7267616e697a6520616e206576656e7420666f7220612060008201527f6675747572652064617465000000000000000000000000000000000000000000602082015250565b6000610c59602b836109e7565b9150610c6482610bfd565b604082019050919050565b60006020820190508181036000830152610c8881610c4c565b9050919050565b7f596f752063616e206f7267616e697a6520616e206576656e74206f6e6c79206960008201527f6620796f7520637265617465206d6f7265207468616e2030207469636b657473602082015250565b6000610ceb6040836109e7565b9150610cf682610c8f565b604082019050919050565b60006020820190508181036000830152610d1a81610cde565b9050919050565b7f4e487b7100000000000000000000000000000000000000000000000000000000600052601160045260246000fd5b6000610d5b826108b0565b91507fffffffffffffffffffffffffffffffffffffffffffffffffffffffffffffffff8203610d8d57610d8c610d21565b5b600182019050919050565b7f4e487b7100000000000000000000000000000000000000000000000000000000600052604160045260246000fd5b7f4e487b7100000000000000000000000000000000000000000000000000000000600052602260045260246000fd5b60006002820490506001821680610e0e57607f821691505b602082108103610e2157610e20610dc7565b5b50919050565b60008190508160005260206000209050919050565b60006020601f8301049050919050565b600082821b905092915050565b600060088302610e897fffffffffffffffffffffffffffffffffffffffffffffffffffffffffffffffff82610e4c565b610e938683610e4c565b95508019841693508086168417925050509392505050565b6000819050919050565b6000610ed0610ecb610ec6846108b0565b610eab565b6108b0565b9050919050565b6000819050919050565b610eea83610eb5565b610efe610ef682610ed7565b848454610e59565b825550505050565b600090565b610f13610f06565b610f1e818484610ee1565b505050565b5b81811015610f4257610f37600082610f0b565b600181019050610f24565b5050565b601f821115610f8757610f5881610e27565b610f6184610e3c565b81016020851015610f70578190505b610f84610f7c85610e3c565b830182610f23565b50505b505050565b600082821c905092915050565b6000610faa60001984600802610f8c565b1980831691505092915050565b6000610fc38383610f99565b9150826002028217905092915050565b610fdc826109dc565b67ffffffffffffffff811115610ff557610ff4610d98565b5b610fff8254610df6565b61100a828285610f46565b600060209050601f83116001811461103d576000841561102b578287015190505b6110358582610fb7565b86555061109d565b601f19841661104b86610e27565b60005b828110156110735784890151825560018201915060208501945060208101905061104e565b86831015611090578489015161108c601f891682610f99565b8355505b6001600288020188555050505b505050505050565b7f4576656e7420646f6573206e6f74206578697374000000000000000000000000600082015250565b60006110db6014836109e7565b91506110e6826110a5565b602082019050919050565b6000602082019050818103600083015261110a816110ce565b9050919050565b7f4576656e742068617320616c7265616479206f63637572726564000000000000600082015250565b6000611147601a836109e7565b915061115282611111565b602082019050919050565b600060208201905081810360008301526111768161113a565b9050919050565b6000611188826108b0565b9150611193836108b0565b92508282026111a1816108b0565b915082820484148315176111b8576111b7610d21565b5b5092915050565b7f4e6f7420656e6f7567682045746865722073656e740000000000000000000000600082015250565b60006111f56015836109e7565b9150611200826111bf565b602082019050919050565b60006020820190508181036000830152611224816111e8565b9050919050565b7f4e6f7420656e6f756768207469636b65747320617661696c61626c6500000000600082015250565b6000611261601c836109e7565b915061126c8261122b565b602082019050919050565b6000602082019050818103600083015261129081611254565b9050919050565b60006112a2826108b0565b91506112ad836108b0565b92508282039050818111156112c5576112c4610d21565b5b92915050565b60006112d6826108b0565b91506112e1836108b0565b92508282019050808211156112f9576112f8610d21565b5b92915050565b7f596f7520646f206e6f74206861766520656e6f756768207469636b6574730000600082015250565b6000611335601e836109e7565b9150611340826112ff565b602082019050919050565b6000602082019050818103600083015261136481611328565b905091905056fea26469706673582212201c900c678f83347c26155783149751e1d575172ddbe9eebda39bd4487f1d16a664736f6c63430008120033",
  "immutableReferences": {},
  "source": "// pragma solidity >=0.5.0 <0.9.0;\r\n\r\n// contract EventContract {\r\n//     struct Event {\r\n//         address organizer;\r\n//         string name;\r\n//         uint date; //0 1 2\r\n//         uint price;\r\n//         uint ticketCount; //1 sec 0.5 sec\r\n//         uint ticketRemain;\r\n//     }\r\n//     mapping(uint => Event) public events;\r\n//     mapping(address => mapping(uint => uint)) public tickets;\r\n//     uint public nextId;\r\n\r\n//     function createEvent(\r\n//         string memory name,\r\n//         uint date,\r\n//         uint price,\r\n//         uint ticketCount\r\n//     ) external {\r\n//         require(\r\n//             date > block.timestamp,\r\n//             \"You can organize event for future date\"\r\n//         );\r\n//         require(\r\n//             ticketCount > 0,\r\n//             \"You can organize event only if you create more than 0 tickets\"\r\n//         );\r\n//         events[nextId] = Event(\r\n//             msg.sender,\r\n//             name,\r\n//             date,\r\n//             price,\r\n//             ticketCount,\r\n//             ticketCount\r\n//         );\r\n//         nextId++;\r\n//     }\r\n\r\n//     function buyTicket(uint id, uint quantity) external payable {\r\n//         require(events[id].date != 0, \"Event does not exist\");\r\n//         require(events[id].date > block.timestamp, \"Event has already occured\");\r\n//         Event storage _event = events[id];\r\n//         require(msg.value == (_event.price * quantity), \"Ethere is not enough\");\r\n//         require(_event.ticketRemain >= quantity, \"Not enough tickets\");\r\n//         _event.ticketRemain -= quantity;\r\n//         tickets[msg.sender][id] += quantity;\r\n//     }\r\n\r\n//     function transferTicket(uint id, uint quantity, address to) external {\r\n//         require(events[id].date != 0, \"Event does not exist\");\r\n//         require(events[id].date > block.timestamp, \"Event has already occured\");\r\n//         require(\r\n//             tickets[msg.sender][id] >= quantity,\r\n//             \"You do not have enough tickets\"\r\n//         );\r\n//         tickets[msg.sender][id] -= quantity;\r\n//         tickets[to][id] += quantity;\r\n//     }\r\n// }\r\n\r\n// SPDX-License-Identifier: Unlicense\r\npragma solidity >=0.5.0 <0.9.0;\r\n\r\ncontract EventContract {\r\n    struct Event {\r\n        address organizer;\r\n        string name;\r\n        uint date; //0 1 2\r\n        uint price;\r\n        uint ticketCount; //1 sec 0.5 sec\r\n        uint ticketRemain;\r\n    }\r\n    mapping(uint => Event) public events;\r\n    mapping(address => mapping(uint => uint)) public tickets;\r\n    uint public nextId;\r\n\r\n    function createEvent(\r\n        string calldata name, // Updated data location to calldata\r\n        uint date,\r\n        uint price,\r\n        uint ticketCount\r\n    ) external {\r\n        require(\r\n            date > block.timestamp,\r\n            \"You can organize an event for a future date\"\r\n        );\r\n        require(\r\n            ticketCount > 0,\r\n            \"You can organize an event only if you create more than 0 tickets\"\r\n        );\r\n        nextId++;\r\n        events[nextId] = Event(\r\n            msg.sender,\r\n            name,\r\n            date,\r\n            price,\r\n            ticketCount,\r\n            ticketCount\r\n        );\r\n    }\r\n\r\n    function buyTicket(uint id, uint quantity) external payable {\r\n        require(events[id].date != 0, \"Event does not exist\");\r\n        require(\r\n            events[id].date > block.timestamp,\r\n            \"Event has already occurred\"\r\n        );\r\n        Event storage _event = events[id];\r\n        require(\r\n            msg.value == (_event.price * quantity),\r\n            \"Not enough Ether sent\"\r\n        );\r\n        require(\r\n            _event.ticketRemain >= quantity,\r\n            \"Not enough tickets available\"\r\n        );\r\n        _event.ticketRemain -= quantity;\r\n        tickets[msg.sender][id] += quantity;\r\n    }\r\n\r\n    function transferTicket(uint id, uint quantity, address to) external {\r\n        require(events[id].date != 0, \"Event does not exist\");\r\n        require(\r\n            events[id].date > block.timestamp,\r\n            \"Event has already occurred\"\r\n        );\r\n        require(\r\n            tickets[msg.sender][id] >= quantity,\r\n            \"You do not have enough tickets\"\r\n        );\r\n        tickets[msg.sender][id] -= quantity;\r\n        tickets[to][id] += quantity;\r\n    }\r\n}\r\n",
  "sourcePath": "C:\\Users\\hp\\Desktop\\newBC\\truffle\\contracts\\EventContract.sol",
  "compiler": {
    "name": "solc",
    "version": "0.8.18+commit.87f61d96.Emscripten.clang"
  },
  "schemaVersion": "3.4.16",
  "updatedAt": "2024-03-22T17:52:07.465Z",
  "networkType": "ethereum",
  "devdoc": {
    "kind": "dev",
    "methods": {},
    "version": 1
  },
  "userdoc": {
    "kind": "user",
    "methods": {},
    "version": 1
  }
}